{
  "_format": "hh-sol-artifact-1",
  "contractName": "DataVerifier",
  "sourceName": "contracts/DataVerifier.sol",
  "abi": [
    {
      "inputs": [
        {
          "internalType": "address",
          "name": "publisherAddress",
          "type": "address"
        }
      ],
      "stateMutability": "nonpayable",
      "type": "constructor"
    },
    {
      "inputs": [],
      "name": "dataPublisher",
      "outputs": [
        {
          "internalType": "contract IDataPublisher",
          "name": "",
          "type": "address"
        }
      ],
      "stateMutability": "view",
      "type": "function"
    },
    {
      "inputs": [
        {
          "internalType": "bytes32",
          "name": "dataHash",
          "type": "bytes32"
        },
        {
          "internalType": "bytes",
          "name": "data",
          "type": "bytes"
        }
      ],
      "name": "verifyData",
      "outputs": [
        {
          "internalType": "bool",
          "name": "",
          "type": "bool"
        }
      ],
      "stateMutability": "view",
      "type": "function"
    }
  ],
  "bytecode": "0x608060405234801561001057600080fd5b506040516106cf3803806106cf833981810160405281019061003291906100db565b806000806101000a81548173ffffffffffffffffffffffffffffffffffffffff021916908373ffffffffffffffffffffffffffffffffffffffff16021790555050610108565b600080fd5b600073ffffffffffffffffffffffffffffffffffffffff82169050919050565b60006100a88261007d565b9050919050565b6100b88161009d565b81146100c357600080fd5b50565b6000815190506100d5816100af565b92915050565b6000602082840312156100f1576100f0610078565b5b60006100ff848285016100c6565b91505092915050565b6105b8806101176000396000f3fe608060405234801561001057600080fd5b50600436106100365760003560e01c8063306ca5d61461003b578063c49744f914610059575b600080fd5b610043610089565b60405161005091906101fb565b60405180910390f35b610073600480360381019061006e91906102c5565b6100ad565b6040516100809190610340565b60405180910390f35b60008054906101000a900473ffffffffffffffffffffffffffffffffffffffff1681565b60008060008054906101000a900473ffffffffffffffffffffffffffffffffffffffff1673ffffffffffffffffffffffffffffffffffffffff166354f6127f866040518263ffffffff1660e01b8152600401610109919061036a565b600060405180830381865afa158015610126573d6000803e3d6000fd5b505050506040513d6000823e3d601f19601f8201168201806040525081019061014f91906104e1565b90508383604051610161929190610569565b60405180910390208180519060200120149150509392505050565b600073ffffffffffffffffffffffffffffffffffffffff82169050919050565b6000819050919050565b60006101c16101bc6101b78461017c565b61019c565b61017c565b9050919050565b60006101d3826101a6565b9050919050565b60006101e5826101c8565b9050919050565b6101f5816101da565b82525050565b600060208201905061021060008301846101ec565b92915050565b6000604051905090565b600080fd5b600080fd5b6000819050919050565b61023d8161022a565b811461024857600080fd5b50565b60008135905061025a81610234565b92915050565b600080fd5b600080fd5b600080fd5b60008083601f84011261028557610284610260565b5b8235905067ffffffffffffffff8111156102a2576102a1610265565b5b6020830191508360018202830111156102be576102bd61026a565b5b9250929050565b6000806000604084860312156102de576102dd610220565b5b60006102ec8682870161024b565b935050602084013567ffffffffffffffff81111561030d5761030c610225565b5b6103198682870161026f565b92509250509250925092565b60008115159050919050565b61033a81610325565b82525050565b60006020820190506103556000830184610331565b92915050565b6103648161022a565b82525050565b600060208201905061037f600083018461035b565b92915050565b600080fd5b6000601f19601f8301169050919050565b7f4e487b7100000000000000000000000000000000000000000000000000000000600052604160045260246000fd5b6103d38261038a565b810181811067ffffffffffffffff821117156103f2576103f161039b565b5b80604052505050565b6000610405610216565b905061041182826103ca565b919050565b600067ffffffffffffffff8211156104315761043061039b565b5b61043a8261038a565b9050602081019050919050565b60005b8381101561046557808201518184015260208101905061044a565b60008484015250505050565b600061048461047f84610416565b6103fb565b9050828152602081018484840111156104a05761049f610385565b5b6104ab848285610447565b509392505050565b600082601f8301126104c8576104c7610260565b5b81516104d8848260208601610471565b91505092915050565b6000602082840312156104f7576104f6610220565b5b600082015167ffffffffffffffff81111561051557610514610225565b5b610521848285016104b3565b91505092915050565b600081905092915050565b82818337600083830152505050565b6000610550838561052a565b935061055d838584610535565b82840190509392505050565b6000610576828486610544565b9150819050939250505056fea2646970667358221220da84a70a32768d2d5f342c9e2e69ac5bf27fd1882c81cf31133301b6efb74fb564736f6c63430008180033",
  "linkReferences": {},
  "deployedLinkReferences": {}
}