{
  "_format": "hh-sol-artifact-1",
  "contractName": "DataPublisher",
  "sourceName": "contracts/DataPublisher.sol",
  "abi": [
    {
      "anonymous": false,
      "inputs": [
        {
          "indexed": true,
          "internalType": "bytes32",
          "name": "dataHash",
          "type": "bytes32"
        },
        {
          "indexed": false,
          "internalType": "bytes",
          "name": "data",
          "type": "bytes"
        }
      ],
      "name": "DataPublished",
      "type": "event"
    },
    {
      "inputs": [
        {
          "internalType": "bytes32",
          "name": "",
          "type": "bytes32"
        }
      ],
      "name": "dataStore",
      "outputs": [
        {
          "internalType": "bytes",
          "name": "",
          "type": "bytes"
        }
      ],
      "stateMutability": "view",
      "type": "function"
    },
    {
      "inputs": [
        {
          "internalType": "bytes32",
          "name": "dataHash",
          "type": "bytes32"
        }
      ],
      "name": "getData",
      "outputs": [
        {
          "internalType": "bytes",
          "name": "",
          "type": "bytes"
        }
      ],
      "stateMutability": "view",
      "type": "function"
    },
    {
      "inputs": [
        {
          "internalType": "bytes",
          "name": "data",
          "type": "bytes"
        }
      ],
      "name": "publishData",
      "outputs": [],
      "stateMutability": "nonpayable",
      "type": "function"
    }
  ],
  "bytecode": "0x608060405234801561001057600080fd5b50610853806100206000396000f3fe608060405234801561001057600080fd5b50600436106100415760003560e01c8063401ac1cc1461004657806354f6127f146100765780638a82e7b6146100a6575b600080fd5b610060600480360381019061005b91906102c3565b6100c2565b60405161006d9190610380565b60405180910390f35b610090600480360381019061008b91906102c3565b610162565b60405161009d9190610380565b60405180910390f35b6100c060048036038101906100bb9190610407565b610206565b005b600060205280600052604060002060009150905080546100e190610483565b80601f016020809104026020016040519081016040528092919081815260200182805461010d90610483565b801561015a5780601f1061012f5761010080835404028352916020019161015a565b820191906000526020600020905b81548152906001019060200180831161013d57829003601f168201915b505050505081565b6060600080838152602001908152602001600020805461018190610483565b80601f01602080910402602001604051908101604052809291908181526020018280546101ad90610483565b80156101fa5780601f106101cf576101008083540402835291602001916101fa565b820191906000526020600020905b8154815290600101906020018083116101dd57829003601f168201915b50505050509050919050565b600082826040516102189291906104f3565b60405180910390209050828260008084815260200190815260200160002091826102439291906106fc565b50807f1ceb2bba7d1612d2c649d0bd9eabcecf86dab99869057572f5f70a23b4cd868a84846040516102769291906107f9565b60405180910390a2505050565b600080fd5b600080fd5b6000819050919050565b6102a08161028d565b81146102ab57600080fd5b50565b6000813590506102bd81610297565b92915050565b6000602082840312156102d9576102d8610283565b5b60006102e7848285016102ae565b91505092915050565b600081519050919050565b600082825260208201905092915050565b60005b8381101561032a57808201518184015260208101905061030f565b60008484015250505050565b6000601f19601f8301169050919050565b6000610352826102f0565b61035c81856102fb565b935061036c81856020860161030c565b61037581610336565b840191505092915050565b6000602082019050818103600083015261039a8184610347565b905092915050565b600080fd5b600080fd5b600080fd5b60008083601f8401126103c7576103c66103a2565b5b8235905067ffffffffffffffff8111156103e4576103e36103a7565b5b602083019150836001820283011115610400576103ff6103ac565b5b9250929050565b6000806020838503121561041e5761041d610283565b5b600083013567ffffffffffffffff81111561043c5761043b610288565b5b610448858286016103b1565b92509250509250929050565b7f4e487b7100000000000000000000000000000000000000000000000000000000600052602260045260246000fd5b6000600282049050600182168061049b57607f821691505b6020821081036104ae576104ad610454565b5b50919050565b600081905092915050565b82818337600083830152505050565b60006104da83856104b4565b93506104e78385846104bf565b82840190509392505050565b60006105008284866104ce565b91508190509392505050565b600082905092915050565b7f4e487b7100000000000000000000000000000000000000000000000000000000600052604160045260246000fd5b60008190508160005260206000209050919050565b60006020601f8301049050919050565b600082821b905092915050565b6000600883026105a87fffffffffffffffffffffffffffffffffffffffffffffffffffffffffffffffff8261056b565b6105b2868361056b565b95508019841693508086168417925050509392505050565b6000819050919050565b6000819050919050565b60006105f96105f46105ef846105ca565b6105d4565b6105ca565b9050919050565b6000819050919050565b610613836105de565b61062761061f82610600565b848454610578565b825550505050565b600090565b61063c61062f565b61064781848461060a565b505050565b5b8181101561066b57610660600082610634565b60018101905061064d565b5050565b601f8211156106b05761068181610546565b61068a8461055b565b81016020851015610699578190505b6106ad6106a58561055b565b83018261064c565b50505b505050565b600082821c905092915050565b60006106d3600019846008026106b5565b1980831691505092915050565b60006106ec83836106c2565b9150826002028217905092915050565b610706838361050c565b67ffffffffffffffff81111561071f5761071e610517565b5b6107298254610483565b61073482828561066f565b6000601f8311600181146107635760008415610751578287013590505b61075b85826106e0565b8655506107c3565b601f19841661077186610546565b60005b8281101561079957848901358255600182019150602085019450602081019050610774565b868310156107b657848901356107b2601f8916826106c2565b8355505b6001600288020188555050505b50505050505050565b60006107d883856102fb565b93506107e58385846104bf565b6107ee83610336565b840190509392505050565b600060208201905081810360008301526108148184866107cc565b9050939250505056fea264697066735822122003da1102de216aff6b20f9b2fb1784f21761dd1f8eb9153158568ee7457d78cf64736f6c63430008180033",
  "linkReferences": {},
  "deployedLinkReferences": {}
}